{
    "contractName": "Ballot",
    "abi": [
        {
            "inputs": [],
            "name": "chairperson",
            "outputs": [
                {
                    "internalType": "address",
                    "name": "",
                    "type": "address"
                }
            ],
            "stateMutability": "view",
            "type": "function"
        },
        {
            "inputs": [],
            "name": "getResult",
            "outputs": [
                {
                    "internalType": "uint256",
                    "name": "",
                    "type": "uint256"
                }
            ],
            "stateMutability": "view",
            "type": "function"
        },
        {
            "inputs": [
                {
                    "internalType": "uint256",
                    "name": "",
                    "type": "uint256"
                }
            ],
            "name": "proposals",
            "outputs": [
                {
                    "internalType": "bytes",
                    "name": "name",
                    "type": "bytes"
                },
                {
                    "internalType": "uint256",
                    "name": "voteCount",
                    "type": "uint256"
                }
            ],
            "stateMutability": "view",
            "type": "function"
        },
        {
            "inputs": [
                {
                    "internalType": "address",
                    "name": "",
                    "type": "address"
                }
            ],
            "name": "voters",
            "outputs": [
                {
                    "internalType": "uint256",
                    "name": "weight",
                    "type": "uint256"
                },
                {
                    "internalType": "bool",
                    "name": "voted",
                    "type": "bool"
                },
                {
                    "internalType": "address",
                    "name": "delegate",
                    "type": "address"
                },
                {
                    "internalType": "uint256",
                    "name": "vote",
                    "type": "uint256"
                }
            ],
            "stateMutability": "view",
            "type": "function"
        }
    ],
    "bytecode": "608060405234801561001057600080fd5b50610337806100206000396000f3fe608060405234801561001057600080fd5b506004361061004c5760003560e01c8063013cf08b146100515780632e4176cf1461007b578063a3ec138d146100a6578063de29278914610117575b600080fd5b61006461005f366004610202565b61012d565b60405161007292919061021b565b60405180910390f35b60005461008e906001600160a01b031681565b6040516001600160a01b039091168152602001610072565b6100e86100b4366004610270565b600160208190526000918252604090912080549181015460029091015460ff82169161010090046001600160a01b03169084565b604051610072949392919093845291151560208401526001600160a01b03166040830152606082015260800190565b61011f6101e9565b604051908152602001610072565b6002818154811061013d57600080fd5b9060005260206000209060020201600091509050806000018054610160906102a0565b80601f016020809104026020016040519081016040528092919081815260200182805461018c906102a0565b80156101d95780601f106101ae576101008083540402835291602001916101d9565b820191906000526020600020905b8154815290600101906020018083116101bc57829003601f168201915b5050505050908060010154905082565b600060016002826101fa82846102da565b949350505050565b60006020828403121561021457600080fd5b5035919050565b604081526000835180604084015260005b81811015610249576020818701810151606086840101520161022c565b506000606082850101526060601f19601f8301168401019150508260208301529392505050565b60006020828403121561028257600080fd5b81356001600160a01b038116811461029957600080fd5b9392505050565b600181811c908216806102b457607f821691505b6020821081036102d457634e487b7160e01b600052602260045260246000fd5b50919050565b808201808211156102fb57634e487b7160e01b600052601160045260246000fd5b9291505056fea26469706673582212204f286b76678055d4ffd8557894eb841952aaf02dea5e2b06393e10e866f4afa064736f6c63430008130033",
    "sourcePath": "c:/gitElaminebendaas/solidityPractice/Ballot.sol",
    "compiler": {
        "name": "solc",
        "version": "0.8.19+commit.7dd6d404"
    },
    "functionHashes": {
        "chairperson()": "2e4176cf",
        "getResult()": "de292789",
        "proposals(uint256)": "013cf08b",
        "voters(address)": "a3ec138d"
    },
    "gasEstimates": {
        "creation": {
            "codeDepositCost": "164600",
            "executionCost": "208",
            "totalCost": "164808"
        },
        "external": {
            "chairperson()": "2337",
            "getResult()": "346",
            "proposals(uint256)": "infinite",
            "voters(address)": "6873"
        }
    }
}