{
    "contractName": "Contract",
    "abi": [
        {
            "inputs": [],
            "stateMutability": "nonpayable",
            "type": "constructor"
        },
        {
            "inputs": [
                {
                    "internalType": "uint256",
                    "name": "requested",
                    "type": "uint256"
                },
                {
                    "internalType": "uint256",
                    "name": "availible",
                    "type": "uint256"
                }
            ],
            "name": "InsufficientBalance",
            "type": "error"
        },
        {
            "anonymous": false,
            "inputs": [
                {
                    "indexed": false,
                    "internalType": "address",
                    "name": "from",
                    "type": "address"
                },
                {
                    "indexed": false,
                    "internalType": "address",
                    "name": "to",
                    "type": "address"
                },
                {
                    "indexed": false,
                    "internalType": "uint256",
                    "name": "amount",
                    "type": "uint256"
                }
            ],
            "name": "Sent",
            "type": "event"
        },
        {
            "inputs": [
                {
                    "internalType": "address",
                    "name": "",
                    "type": "address"
                }
            ],
            "name": "balances",
            "outputs": [
                {
                    "internalType": "uint256",
                    "name": "",
                    "type": "uint256"
                }
            ],
            "stateMutability": "view",
            "type": "function"
        },
        {
            "inputs": [
                {
                    "internalType": "address",
                    "name": "receiver",
                    "type": "address"
                },
                {
                    "internalType": "uint256",
                    "name": "amount",
                    "type": "uint256"
                }
            ],
            "name": "mint",
            "outputs": [],
            "stateMutability": "nonpayable",
            "type": "function"
        },
        {
            "inputs": [],
            "name": "minter",
            "outputs": [
                {
                    "internalType": "address",
                    "name": "",
                    "type": "address"
                }
            ],
            "stateMutability": "view",
            "type": "function"
        },
        {
            "inputs": [
                {
                    "internalType": "address",
                    "name": "receiver",
                    "type": "address"
                },
                {
                    "internalType": "uint256",
                    "name": "amount",
                    "type": "uint256"
                }
            ],
            "name": "send",
            "outputs": [],
            "stateMutability": "nonpayable",
            "type": "function"
        }
    ],
    "bytecode": "608060405234801561001057600080fd5b50600080546001600160a01b031916331790556102f2806100326000396000f3fe608060405234801561001057600080fd5b506004361061004c5760003560e01c8063075461721461005157806327e235e31461008157806340c10f19146100af578063d0679d34146100c4575b600080fd5b600054610064906001600160a01b031681565b6040516001600160a01b0390911681526020015b60405180910390f35b6100a161008f36600461022e565b60016020526000908152604090205481565b604051908152602001610078565b6100c26100bd366004610250565b6100d7565b005b6100c26100d2366004610250565b61011f565b6000546001600160a01b031633146100ee57600080fd5b6001600160a01b03821660009081526001602052604081208054839290610116908490610290565b90915550505050565b3360009081526001602052604090205481111561017457336000908152600160205260409081902054905163cf47918160e01b815261016b918391600401918252602082015260400190565b60405180910390fd5b33600090815260016020526040812080548392906101939084906102a9565b90915550506001600160a01b038216600090815260016020526040812080548392906101c0908490610290565b9091555050604080513381526001600160a01b03841660208201529081018290527f3990db2d31862302a685e8086b5755072a6e2b5b780af1ee81ece35ee3cd33459060600160405180910390a15050565b80356001600160a01b038116811461022957600080fd5b919050565b60006020828403121561024057600080fd5b61024982610212565b9392505050565b6000806040838503121561026357600080fd5b61026c83610212565b946020939093013593505050565b634e487b7160e01b600052601160045260246000fd5b808201808211156102a3576102a361027a565b92915050565b818103818111156102a3576102a361027a56fea264697066735822122055281fb6114b2e4efed72850f793356ded394451381d3cd89cf4369ad8d2048264736f6c63430008130033",
    "sourcePath": "c:/gitElaminebendaas/solidityPractice/Contract.sol",
    "compiler": {
        "name": "solc",
        "version": "0.8.19+commit.7dd6d404"
    },
    "functionHashes": {
        "balances(address)": "27e235e3",
        "mint(address,uint256)": "40c10f19",
        "minter()": "07546172",
        "send(address,uint256)": "d0679d34"
    },
    "gasEstimates": {
        "creation": {
            "codeDepositCost": "150800",
            "executionCost": "24431",
            "totalCost": "175231"
        },
        "external": {
            "balances(address)": "2519",
            "mint(address,uint256)": "26879",
            "minter()": "2304",
            "send(address,uint256)": "infinite"
        }
    }
}