{
    "contractName": "Contract",
    "abi": [
        {
            "inputs": [
                {
                    "internalType": "address",
                    "name": "",
                    "type": "address"
                }
            ],
            "name": "balances",
            "outputs": [
                {
                    "internalType": "uint256",
                    "name": "",
                    "type": "uint256"
                }
            ],
            "stateMutability": "view",
            "type": "function"
        },
        {
            "inputs": [],
            "name": "minter",
            "outputs": [
                {
                    "internalType": "address",
                    "name": "",
                    "type": "address"
                }
            ],
            "stateMutability": "view",
            "type": "function"
        }
    ],
    "bytecode": "608060405234801561001057600080fd5b5060f48061001f6000396000f3fe6080604052348015600f57600080fd5b506004361060325760003560e01c80630754617214603757806327e235e3146066575b600080fd5b6000546049906001600160a01b031681565b6040516001600160a01b0390911681526020015b60405180910390f35b608360713660046090565b60016020526000908152604090205481565b604051908152602001605d565b60006020828403121560a157600080fd5b81356001600160a01b038116811460b757600080fd5b939250505056fea2646970667358221220912882c2b82871f20039578be1b58f9b6eabc311de3bea82b926c18b5c7f765264736f6c63430008130033",
    "sourcePath": "c:/gitElaminebendaas/solidityPractice/Contract.sol",
    "compiler": {
        "name": "solc",
        "version": "0.8.19+commit.7dd6d404"
    },
    "functionHashes": {
        "balances(address)": "27e235e3",
        "minter()": "07546172"
    },
    "gasEstimates": {
        "creation": {
            "codeDepositCost": "48800",
            "executionCost": "99",
            "totalCost": "48899"
        },
        "external": {
            "balances(address)": "2484",
            "minter()": "2304"
        }
    }
}